{
  "contractName": "transferAnyToken",
  "abi": [
    {
      "inputs": [
        {
          "internalType": "uint256",
          "name": "_amt",
          "type": "uint256"
        }
      ],
      "stateMutability": "nonpayable",
      "type": "constructor"
    },
    {
      "inputs": [],
      "name": "Not_Admin",
      "type": "error"
    },
    {
      "inputs": [],
      "name": "Not_Owner",
      "type": "error"
    },
    {
      "inputs": [
        {
          "internalType": "address",
          "name": "",
          "type": "address"
        }
      ],
      "name": "admin",
      "outputs": [
        {
          "internalType": "bool",
          "name": "",
          "type": "bool"
        }
      ],
      "stateMutability": "view",
      "type": "function"
    },
    {
      "inputs": [],
      "name": "amount",
      "outputs": [
        {
          "internalType": "uint256",
          "name": "",
          "type": "uint256"
        }
      ],
      "stateMutability": "view",
      "type": "function"
    },
    {
      "inputs": [],
      "name": "owner",
      "outputs": [
        {
          "internalType": "address",
          "name": "",
          "type": "address"
        }
      ],
      "stateMutability": "view",
      "type": "function"
    },
    {
      "inputs": [
        {
          "internalType": "address[]",
          "name": "_admAddr",
          "type": "address[]"
        }
      ],
      "name": "addAdmin",
      "outputs": [],
      "stateMutability": "nonpayable",
      "type": "function"
    },
    {
      "inputs": [
        {
          "internalType": "address",
          "name": "token",
          "type": "address"
        },
        {
          "internalType": "address[]",
          "name": "_user",
          "type": "address[]"
        },
        {
          "internalType": "uint256[]",
          "name": "amt",
          "type": "uint256[]"
        }
      ],
      "name": "transfer_To_Multi_Wallet",
      "outputs": [],
      "stateMutability": "nonpayable",
      "type": "function"
    },
    {
      "inputs": [
        {
          "internalType": "address",
          "name": "token",
          "type": "address"
        },
        {
          "internalType": "address[]",
          "name": "_user",
          "type": "address[]"
        }
      ],
      "name": "transfer_To_Multi_Wallet_EqualAmount",
      "outputs": [],
      "stateMutability": "nonpayable",
      "type": "function"
    },
    {
      "inputs": [
        {
          "internalType": "address",
          "name": "tok",
          "type": "address"
        },
        {
          "internalType": "uint256",
          "name": "amt",
          "type": "uint256"
        }
      ],
      "name": "withdraw",
      "outputs": [],
      "stateMutability": "nonpayable",
      "type": "function"
    },
    {
      "inputs": [
        {
          "internalType": "uint256",
          "name": "_newAmount",
          "type": "uint256"
        }
      ],
      "name": "setAmount",
      "outputs": [],
      "stateMutability": "nonpayable",
      "type": "function"
    }
  ],
  "bytecode": "0x608060405234801561001057600080fd5b50604051610fc2380380610fc2833981810160405281019061003291906100ec565b80600181905550336000806101000a81548173ffffffffffffffffffffffffffffffffffffffff021916908373ffffffffffffffffffffffffffffffffffffffff1602179055506001600260003373ffffffffffffffffffffffffffffffffffffffff1673ffffffffffffffffffffffffffffffffffffffff16815260200190815260200160002060006101000a81548160ff0219169083151502179055505061013f565b6000815190506100e681610128565b92915050565b60006020828403121561010257610101610123565b5b6000610110848285016100d7565b91505092915050565b6000819050919050565b600080fd5b61013181610119565b811461013c57600080fd5b50565b610e748061014e6000396000f3fe608060405234801561001057600080fd5b50600436106100885760003560e01c80639db02df11161005b5780639db02df114610113578063aa8c217c1461012f578063b5518af01461014d578063f3fef3a31461016957610088565b8063271f88b41461008d5780633d0950a8146100a957806363a846f8146100c55780638da5cb5b146100f5575b600080fd5b6100a760048036038101906100a29190610afd565b610185565b005b6100c360048036038101906100be9190610a87565b610219565b005b6100df60048036038101906100da9190610933565b610339565b6040516100ec9190610bd2565b60405180910390f35b6100fd610359565b60405161010a9190610b57565b60405180910390f35b61012d600480360381019061012891906109bc565b61037d565b005b610137610516565b6040516101449190610bed565b60405180910390f35b61016760048036038101906101629190610960565b61051c565b005b610183600480360381019061017e9190610a47565b61069c565b005b60011515600260003373ffffffffffffffffffffffffffffffffffffffff1673ffffffffffffffffffffffffffffffffffffffff16815260200190815260200160002060009054906101000a900460ff1615151461020f576040517fd86f2c8500000000000000000000000000000000000000000000000000000000815260040160405180910390fd5b8060018190555050565b60008054906101000a900473ffffffffffffffffffffffffffffffffffffffff1673ffffffffffffffffffffffffffffffffffffffff163373ffffffffffffffffffffffffffffffffffffffff161461029e576040517fa7b495d200000000000000000000000000000000000000000000000000000000815260040160405180910390fd5b60005b81518110156103355760008282815181106102bf576102be610d76565b5b602002602001015190506001600260008373ffffffffffffffffffffffffffffffffffffffff1673ffffffffffffffffffffffffffffffffffffffff16815260200190815260200160002060006101000a81548160ff02191690831515021790555050808061032d90610cfe565b9150506102a1565b5050565b60026020528060005260406000206000915054906101000a900460ff1681565b60008054906101000a900473ffffffffffffffffffffffffffffffffffffffff1681565b60011515600260003373ffffffffffffffffffffffffffffffffffffffff1673ffffffffffffffffffffffffffffffffffffffff16815260200190815260200160002060009054906101000a900460ff16151514610407576040517fd86f2c8500000000000000000000000000000000000000000000000000000000815260040160405180910390fd5b60005b825181101561051057600083828151811061042857610427610d76565b5b602002602001015190508473ffffffffffffffffffffffffffffffffffffffff166323b872dd60008054906101000a900473ffffffffffffffffffffffffffffffffffffffff168386868151811061048357610482610d76565b5b60200260200101516040518463ffffffff1660e01b81526004016104a993929190610b72565b602060405180830381600087803b1580156104c357600080fd5b505af11580156104d7573d6000803e3d6000fd5b505050506040513d601f19601f820116820180604052508101906104fb9190610ad0565b5050808061050890610cfe565b91505061040a565b50505050565b60015481565b60011515600260003373ffffffffffffffffffffffffffffffffffffffff1673ffffffffffffffffffffffffffffffffffffffff16815260200190815260200160002060009054906101000a900460ff161515146105a6576040517fd86f2c8500000000000000000000000000000000000000000000000000000000815260040160405180910390fd5b60005b81518110156106975760008282815181106105c7576105c6610d76565b5b602002602001015190508373ffffffffffffffffffffffffffffffffffffffff166323b872dd60008054906101000a900473ffffffffffffffffffffffffffffffffffffffff16836001546040518463ffffffff1660e01b815260040161063093929190610b72565b602060405180830381600087803b15801561064a57600080fd5b505af115801561065e573d6000803e3d6000fd5b505050506040513d601f19601f820116820180604052508101906106829190610ad0565b5050808061068f90610cfe565b9150506105a9565b505050565b60011515600260003373ffffffffffffffffffffffffffffffffffffffff1673ffffffffffffffffffffffffffffffffffffffff16815260200190815260200160002060009054906101000a900460ff16151514610726576040517fd86f2c8500000000000000000000000000000000000000000000000000000000815260040160405180910390fd5b8173ffffffffffffffffffffffffffffffffffffffff1663a9059cbb33836040518363ffffffff1660e01b8152600401610761929190610ba9565b602060405180830381600087803b15801561077b57600080fd5b505af115801561078f573d6000803e3d6000fd5b505050506040513d601f19601f820116820180604052508101906107b39190610ad0565b505050565b60006107cb6107c684610c2d565b610c08565b905080838252602082019050828560208602820111156107ee576107ed610dd9565b5b60005b8581101561081e57816108048882610898565b8452602084019350602083019250506001810190506107f1565b5050509392505050565b600061083b61083684610c59565b610c08565b9050808382526020820190508285602086028201111561085e5761085d610dd9565b5b60005b8581101561088e5781610874888261091e565b845260208401935060208301925050600181019050610861565b5050509392505050565b6000813590506108a781610df9565b92915050565b600082601f8301126108c2576108c1610dd4565b5b81356108d28482602086016107b8565b91505092915050565b600082601f8301126108f0576108ef610dd4565b5b8135610900848260208601610828565b91505092915050565b60008151905061091881610e10565b92915050565b60008135905061092d81610e27565b92915050565b60006020828403121561094957610948610de3565b5b600061095784828501610898565b91505092915050565b6000806040838503121561097757610976610de3565b5b600061098585828601610898565b925050602083013567ffffffffffffffff8111156109a6576109a5610dde565b5b6109b2858286016108ad565b9150509250929050565b6000806000606084860312156109d5576109d4610de3565b5b60006109e386828701610898565b935050602084013567ffffffffffffffff811115610a0457610a03610dde565b5b610a10868287016108ad565b925050604084013567ffffffffffffffff811115610a3157610a30610dde565b5b610a3d868287016108db565b9150509250925092565b60008060408385031215610a5e57610a5d610de3565b5b6000610a6c85828601610898565b9250506020610a7d8582860161091e565b9150509250929050565b600060208284031215610a9d57610a9c610de3565b5b600082013567ffffffffffffffff811115610abb57610aba610dde565b5b610ac7848285016108ad565b91505092915050565b600060208284031215610ae657610ae5610de3565b5b6000610af484828501610909565b91505092915050565b600060208284031215610b1357610b12610de3565b5b6000610b218482850161091e565b91505092915050565b610b3381610c85565b82525050565b610b4281610c97565b82525050565b610b5181610cc3565b82525050565b6000602082019050610b6c6000830184610b2a565b92915050565b6000606082019050610b876000830186610b2a565b610b946020830185610b2a565b610ba16040830184610b48565b949350505050565b6000604082019050610bbe6000830185610b2a565b610bcb6020830184610b48565b9392505050565b6000602082019050610be76000830184610b39565b92915050565b6000602082019050610c026000830184610b48565b92915050565b6000610c12610c23565b9050610c1e8282610ccd565b919050565b6000604051905090565b600067ffffffffffffffff821115610c4857610c47610da5565b5b602082029050602081019050919050565b600067ffffffffffffffff821115610c7457610c73610da5565b5b602082029050602081019050919050565b6000610c9082610ca3565b9050919050565b60008115159050919050565b600073ffffffffffffffffffffffffffffffffffffffff82169050919050565b6000819050919050565b610cd682610de8565b810181811067ffffffffffffffff82111715610cf557610cf4610da5565b5b80604052505050565b6000610d0982610cc3565b91507fffffffffffffffffffffffffffffffffffffffffffffffffffffffffffffffff821415610d3c57610d3b610d47565b5b600182019050919050565b7f4e487b7100000000000000000000000000000000000000000000000000000000600052601160045260246000fd5b7f4e487b7100000000000000000000000000000000000000000000000000000000600052603260045260246000fd5b7f4e487b7100000000000000000000000000000000000000000000000000000000600052604160045260246000fd5b600080fd5b600080fd5b600080fd5b600080fd5b6000601f19601f8301169050919050565b610e0281610c85565b8114610e0d57600080fd5b50565b610e1981610c97565b8114610e2457600080fd5b50565b610e3081610cc3565b8114610e3b57600080fd5b5056fea2646970667358221220bb6ade3307b0d79acaa243367ecd362055346289adba61cbf24c134972ba35ac64736f6c63430008070033",
  "immutableReferences": {},
  "source": "\n\n// SPDX-License-Identifier: MIT\npragma solidity 0.8.7;\n\nimport \"./errors.sol\";\ninterface IERC20 {\n    function transfer(address recipient, uint256 amount) external returns (bool);\n    function transferFrom(address from, address to, uint value) external returns (bool);\n}\n\n\n\ncontract transferAnyToken {\n    address public owner;\n    uint256 public amount;\n    \n    mapping(address => bool) public admin;\n    \n    constructor (uint256 _amt) {\n        amount = _amt;\n        owner = msg.sender;\n        admin[msg.sender] = true;\n    }\n    \n    function addAdmin(address[] memory _admAddr) public {\n        if(msg.sender != owner) revert Not_Owner();\n        for (uint256 i = 0; i < _admAddr.length; i ++) {\n            address _admin = _admAddr[i];\n            admin[_admin] = true;\n        }\n    }\n    \n    function transfer_To_Multi_Wallet(address token, address[] memory _user, uint256[] memory amt) public {\n        if (admin[msg.sender] != true) revert Not_Admin();\n        for (uint256 i = 0; i < _user.length; i++) {\n            address wallet = _user[i];\n            IERC20(token).transferFrom(owner, wallet, amt[i]);\n        }\n    }\n\n    function transfer_To_Multi_Wallet_EqualAmount(address token, address[] memory _user) public {\n        if (admin[msg.sender] != true) revert Not_Admin();\n        for (uint256 i = 0; i < _user.length; i++) {\n            address wallet = _user[i];\n            IERC20(token).transferFrom(owner, wallet, amount);\n        }\n    }\n\n    function withdraw(address tok, uint256 amt) external {\n        if (admin[msg.sender] != true) revert Not_Admin();\n        IERC20(tok).transfer(msg.sender, amt);\n    }\n    \n    function setAmount(uint256 _newAmount) public {\n        if (admin[msg.sender] != true) revert Not_Admin();\n        amount = _newAmount;\n    }\n}",
  "sourcePath": "/home/favourite/Desktop/workspace/Me/airdroppingContract/contracts/airdrop.sol",
  "compiler": {
    "name": "solc",
    "version": "0.8.7+commit.e28d00a7.Emscripten.clang"
  },
  "schemaVersion": "3.4.7",
  "updatedAt": "2022-06-20T23:27:19.570Z",
  "devdoc": {
    "kind": "dev",
    "methods": {},
    "version": 1
  },
  "userdoc": {
    "kind": "user",
    "methods": {},
    "version": 1
  }
}